{
  "contractName": "DLC",
  "abi": [
    {
      "inputs": [],
      "payable": true,
      "stateMutability": "payable",
      "type": "constructor"
    },
    {
      "anonymous": false,
      "inputs": [
        {
          "indexed": true,
          "internalType": "address",
          "name": "owner",
          "type": "address"
        },
        {
          "indexed": true,
          "internalType": "address",
          "name": "spender",
          "type": "address"
        },
        {
          "indexed": false,
          "internalType": "uint256",
          "name": "value",
          "type": "uint256"
        }
      ],
      "name": "Approval",
      "type": "event"
    },
    {
      "anonymous": false,
      "inputs": [
        {
          "indexed": true,
          "internalType": "address",
          "name": "previousOwner",
          "type": "address"
        },
        {
          "indexed": true,
          "internalType": "address",
          "name": "newOwner",
          "type": "address"
        }
      ],
      "name": "OwnershipTransferred",
      "type": "event"
    },
    {
      "anonymous": false,
      "inputs": [
        {
          "indexed": false,
          "internalType": "address",
          "name": "account",
          "type": "address"
        }
      ],
      "name": "Paused",
      "type": "event"
    },
    {
      "anonymous": false,
      "inputs": [
        {
          "indexed": true,
          "internalType": "address",
          "name": "from",
          "type": "address"
        },
        {
          "indexed": true,
          "internalType": "address",
          "name": "to",
          "type": "address"
        },
        {
          "indexed": false,
          "internalType": "uint256",
          "name": "value",
          "type": "uint256"
        }
      ],
      "name": "Transfer",
      "type": "event"
    },
    {
      "anonymous": false,
      "inputs": [
        {
          "indexed": false,
          "internalType": "address",
          "name": "account",
          "type": "address"
        }
      ],
      "name": "Unpaused",
      "type": "event"
    },
    {
      "constant": true,
      "inputs": [
        {
          "internalType": "address",
          "name": "owner",
          "type": "address"
        },
        {
          "internalType": "address",
          "name": "spender",
          "type": "address"
        }
      ],
      "name": "allowance",
      "outputs": [
        {
          "internalType": "uint256",
          "name": "",
          "type": "uint256"
        }
      ],
      "payable": false,
      "stateMutability": "view",
      "type": "function"
    },
    {
      "constant": false,
      "inputs": [
        {
          "internalType": "address",
          "name": "spender",
          "type": "address"
        },
        {
          "internalType": "uint256",
          "name": "amount",
          "type": "uint256"
        }
      ],
      "name": "approve",
      "outputs": [
        {
          "internalType": "bool",
          "name": "",
          "type": "bool"
        }
      ],
      "payable": false,
      "stateMutability": "nonpayable",
      "type": "function"
    },
    {
      "constant": true,
      "inputs": [
        {
          "internalType": "address",
          "name": "account",
          "type": "address"
        }
      ],
      "name": "balanceOf",
      "outputs": [
        {
          "internalType": "uint256",
          "name": "",
          "type": "uint256"
        }
      ],
      "payable": false,
      "stateMutability": "view",
      "type": "function"
    },
    {
      "constant": false,
      "inputs": [
        {
          "internalType": "address",
          "name": "account",
          "type": "address"
        },
        {
          "internalType": "uint256",
          "name": "amount",
          "type": "uint256"
        }
      ],
      "name": "burn",
      "outputs": [
        {
          "internalType": "bool",
          "name": "",
          "type": "bool"
        }
      ],
      "payable": false,
      "stateMutability": "nonpayable",
      "type": "function"
    },
    {
      "constant": false,
      "inputs": [
        {
          "internalType": "address",
          "name": "account",
          "type": "address"
        },
        {
          "internalType": "uint256",
          "name": "amount",
          "type": "uint256"
        }
      ],
      "name": "burnFrom",
      "outputs": [
        {
          "internalType": "bool",
          "name": "",
          "type": "bool"
        }
      ],
      "payable": false,
      "stateMutability": "nonpayable",
      "type": "function"
    },
    {
      "constant": true,
      "inputs": [],
      "name": "decimals",
      "outputs": [
        {
          "internalType": "uint8",
          "name": "",
          "type": "uint8"
        }
      ],
      "payable": false,
      "stateMutability": "view",
      "type": "function"
    },
    {
      "constant": false,
      "inputs": [
        {
          "internalType": "address",
          "name": "spender",
          "type": "address"
        },
        {
          "internalType": "uint256",
          "name": "subtractedValue",
          "type": "uint256"
        }
      ],
      "name": "decreaseAllowance",
      "outputs": [
        {
          "internalType": "bool",
          "name": "",
          "type": "bool"
        }
      ],
      "payable": false,
      "stateMutability": "nonpayable",
      "type": "function"
    },
    {
      "constant": true,
      "inputs": [],
      "name": "getOwner",
      "outputs": [
        {
          "internalType": "address",
          "name": "",
          "type": "address"
        }
      ],
      "payable": false,
      "stateMutability": "view",
      "type": "function"
    },
    {
      "constant": false,
      "inputs": [
        {
          "internalType": "address",
          "name": "spender",
          "type": "address"
        },
        {
          "internalType": "uint256",
          "name": "addedValue",
          "type": "uint256"
        }
      ],
      "name": "increaseAllowance",
      "outputs": [
        {
          "internalType": "bool",
          "name": "",
          "type": "bool"
        }
      ],
      "payable": false,
      "stateMutability": "nonpayable",
      "type": "function"
    },
    {
      "constant": true,
      "inputs": [],
      "name": "name",
      "outputs": [
        {
          "internalType": "string",
          "name": "",
          "type": "string"
        }
      ],
      "payable": false,
      "stateMutability": "view",
      "type": "function"
    },
    {
      "constant": true,
      "inputs": [],
      "name": "owner",
      "outputs": [
        {
          "internalType": "address",
          "name": "",
          "type": "address"
        }
      ],
      "payable": false,
      "stateMutability": "view",
      "type": "function"
    },
    {
      "constant": false,
      "inputs": [],
      "name": "pause",
      "outputs": [],
      "payable": false,
      "stateMutability": "nonpayable",
      "type": "function"
    },
    {
      "constant": true,
      "inputs": [],
      "name": "paused",
      "outputs": [
        {
          "internalType": "bool",
          "name": "",
          "type": "bool"
        }
      ],
      "payable": false,
      "stateMutability": "view",
      "type": "function"
    },
    {
      "constant": false,
      "inputs": [],
      "name": "renounceOwnership",
      "outputs": [],
      "payable": false,
      "stateMutability": "nonpayable",
      "type": "function"
    },
    {
      "constant": true,
      "inputs": [],
      "name": "symbol",
      "outputs": [
        {
          "internalType": "string",
          "name": "",
          "type": "string"
        }
      ],
      "payable": false,
      "stateMutability": "view",
      "type": "function"
    },
    {
      "constant": true,
      "inputs": [],
      "name": "totalSupply",
      "outputs": [
        {
          "internalType": "uint256",
          "name": "",
          "type": "uint256"
        }
      ],
      "payable": false,
      "stateMutability": "view",
      "type": "function"
    },
    {
      "constant": false,
      "inputs": [
        {
          "internalType": "address",
          "name": "newOwner",
          "type": "address"
        }
      ],
      "name": "transferOwnership",
      "outputs": [],
      "payable": false,
      "stateMutability": "nonpayable",
      "type": "function"
    },
    {
      "constant": false,
      "inputs": [],
      "name": "unpause",
      "outputs": [],
      "payable": false,
      "stateMutability": "nonpayable",
      "type": "function"
    },
    {
      "constant": false,
      "inputs": [
        {
          "internalType": "address",
          "name": "_receiver",
          "type": "address"
        },
        {
          "internalType": "uint256",
          "name": "_amount",
          "type": "uint256"
        }
      ],
      "name": "transfer",
      "outputs": [
        {
          "internalType": "bool",
          "name": "success",
          "type": "bool"
        }
      ],
      "payable": false,
      "stateMutability": "nonpayable",
      "type": "function"
    },
    {
      "constant": false,
      "inputs": [
        {
          "internalType": "address",
          "name": "_from",
          "type": "address"
        },
        {
          "internalType": "address",
          "name": "_receiver",
          "type": "address"
        },
        {
          "internalType": "uint256",
          "name": "_amount",
          "type": "uint256"
        }
      ],
      "name": "transferFrom",
      "outputs": [
        {
          "internalType": "bool",
          "name": "",
          "type": "bool"
        }
      ],
      "payable": false,
      "stateMutability": "nonpayable",
      "type": "function"
    },
    {
      "constant": false,
      "inputs": [
        {
          "internalType": "address",
          "name": "_receiver",
          "type": "address"
        },
        {
          "internalType": "uint256",
          "name": "_amount",
          "type": "uint256"
        },
        {
          "internalType": "uint256",
          "name": "_releaseDate",
          "type": "uint256"
        }
      ],
      "name": "transferAndLock",
      "outputs": [
        {
          "internalType": "bool",
          "name": "success",
          "type": "bool"
        }
      ],
      "payable": false,
      "stateMutability": "nonpayable",
      "type": "function"
    },
    {
      "constant": true,
      "inputs": [],
      "name": "getLockedAddresses",
      "outputs": [
        {
          "internalType": "address[]",
          "name": "",
          "type": "address[]"
        }
      ],
      "payable": false,
      "stateMutability": "view",
      "type": "function"
    },
    {
      "constant": true,
      "inputs": [],
      "name": "getNumberOfLockedAddresses",
      "outputs": [
        {
          "internalType": "uint256",
          "name": "_count",
          "type": "uint256"
        }
      ],
      "payable": false,
      "stateMutability": "view",
      "type": "function"
    },
    {
      "constant": true,
      "inputs": [],
      "name": "getNumberOfLockedAddressesCurrently",
      "outputs": [
        {
          "internalType": "uint256",
          "name": "_count",
          "type": "uint256"
        }
      ],
      "payable": false,
      "stateMutability": "view",
      "type": "function"
    },
    {
      "constant": true,
      "inputs": [],
      "name": "getLockedAddressesCurrently",
      "outputs": [
        {
          "internalType": "address[]",
          "name": "",
          "type": "address[]"
        }
      ],
      "payable": false,
      "stateMutability": "view",
      "type": "function"
    },
    {
      "constant": true,
      "inputs": [
        {
          "internalType": "address",
          "name": "lockedAddress",
          "type": "address"
        }
      ],
      "name": "getLockedAmount",
      "outputs": [
        {
          "internalType": "uint256",
          "name": "_amount",
          "type": "uint256"
        }
      ],
      "payable": false,
      "stateMutability": "view",
      "type": "function"
    },
    {
      "constant": true,
      "inputs": [],
      "name": "getLockedAmountTotal",
      "outputs": [
        {
          "internalType": "uint256",
          "name": "_amount",
          "type": "uint256"
        }
      ],
      "payable": false,
      "stateMutability": "view",
      "type": "function"
    },
    {
      "constant": true,
      "inputs": [
        {
          "internalType": "address",
          "name": "lockedAddress",
          "type": "address"
        }
      ],
      "name": "getAvailableBalance",
      "outputs": [
        {
          "internalType": "uint256",
          "name": "_amount",
          "type": "uint256"
        }
      ],
      "payable": false,
      "stateMutability": "view",
      "type": "function"
    },
    {
      "constant": true,
      "inputs": [],
      "name": "getCirculatingSupplyTotal",
      "outputs": [
        {
          "internalType": "uint256",
          "name": "_amount",
          "type": "uint256"
        }
      ],
      "payable": false,
      "stateMutability": "view",
      "type": "function"
    }
  ],
  "bytecode": "0x6080604052739056d989164089c3ea5e260d09f44181ddf6517c600760006101000a81548173ffffffffffffffffffffffffffffffffffffffff021916908373ffffffffffffffffffffffffffffffffffffffff1602179055507315f67ed889b7cbd397d6912b02197c0f68316f5e600860006101000a81548173ffffffffffffffffffffffffffffffffffffffff021916908373ffffffffffffffffffffffffffffffffffffffff160217905550732773d4aa9e92d6f48fdf168a2608fc8ef2995cec600960006101000a81548173ffffffffffffffffffffffffffffffffffffffff021916908373ffffffffffffffffffffffffffffffffffffffff16021790555073deaa29120287264c421b967d06fc92d65b0a4b0e600a60006101000a81548173ffffffffffffffffffffffffffffffffffffffff021916908373ffffffffffffffffffffffffffffffffffffffff16021790555073644508057bf6a4d6cf8f23d2cd191de604f29986600b60006101000a81548173ffffffffffffffffffffffffffffffffffffffff021916908373ffffffffffffffffffffffffffffffffffffffff160217905550601260ff16600a0a6013556040518060400160405280600381526020017f444c4300000000000000000000000000000000000000000000000000000000008152506040518060400160405280600881526020017f444c43544f4b454e000000000000000000000000000000000000000000000000815250639502f900601260006200023d6200067460201b60201c565b9050806000806101000a81548173ffffffffffffffffffffffffffffffffffffffff021916908373ffffffffffffffffffffffffffffffffffffffff1602179055508073ffffffffffffffffffffffffffffffffffffffff16600073ffffffffffffffffffffffffffffffffffffffff167f8be0079c531659141344cd1fd0a4f28419497f9722a3daafe3b4186f6b6457e060405160405180910390a35060008060146101000a81548160ff02191690831515021790555083600690805190602001906200030d92919062000eb0565b5082600590805190602001906200032692919062000eb0565b5080600460006101000a81548160ff021916908360ff160217905550600460009054906101000a900460ff1660ff16600a0a8202600381905550600354600160003373ffffffffffffffffffffffffffffffffffffffff1673ffffffffffffffffffffffffffffffffffffffff168152602001908152602001600020819055503373ffffffffffffffffffffffffffffffffffffffff16600073ffffffffffffffffffffffffffffffffffffffff167fddf252ad1be2c89b69c2b068fc378daa952ba7f163c4a11628f55a4df523b3ef6003546040518082815260200191505060405180910390a3505050506302625a006010819055506200045c600b60009054906101000a900473ffffffffffffffffffffffffffffffffffffffff16601354601054026200067c60201b62002be81760201c565b50630ee6b280601081905550620004a7600960009054906101000a900473ffffffffffffffffffffffffffffffffffffffff16601354601054026200067c60201b62002be81760201c565b50630ee6b280601081905550620004f2600860009054906101000a900473ffffffffffffffffffffffffffffffffffffffff16601354601054026200067c60201b62002be81760201c565b50630ee6b2806010819055506200053d600760009054906101000a900473ffffffffffffffffffffffffffffffffffffffff16601354601054026200067c60201b62002be81760201c565b5060146011819055506228206f6003026012819055506000600590506200056f33620006aa60201b620010501760201c565b60108190555060008090505b601154811015620005c657600f60125482024201908060018154018082558091505090600182039060005260206000200160009091929091909150555080806001019150506200057b565b5060008090505b600f805490508110156200066c57600060648360ff166010540281620005ef57fe5b0490506200060e81601054620006f360201b620025131790919060201c565b506200065c600a60009054906101000a900473ffffffffffffffffffffffffffffffffffffffff1682600f85815481106200064557fe5b90600052602060002001546200074560201b60201c565b50508080600101915050620005cd565b505062000f79565b600033905090565b6000620006a0620006926200067460201b60201c565b848462000a6d60201b60201c565b6001905092915050565b6000600160008373ffffffffffffffffffffffffffffffffffffffff1673ffffffffffffffffffffffffffffffffffffffff168152602001908152602001600020549050919050565b60006200073d83836040518060400160405280601e81526020017f536166654d6174683a207375627472616374696f6e206f766572666c6f77000081525062000d3a60201b60201c565b905092915050565b6000600860009054906101000a900473ffffffffffffffffffffffffffffffffffffffff1673ffffffffffffffffffffffffffffffffffffffff163373ffffffffffffffffffffffffffffffffffffffff161480620007f15750600b60009054906101000a900473ffffffffffffffffffffffffffffffffffffffff1673ffffffffffffffffffffffffffffffffffffffff163373ffffffffffffffffffffffffffffffffffffffff16145b806200084a5750600760009054906101000a900473ffffffffffffffffffffffffffffffffffffffff1673ffffffffffffffffffffffffffffffffffffffff163373ffffffffffffffffffffffffffffffffffffffff16145b806200089057506200086162000dfe60201b60201c565b73ffffffffffffffffffffffffffffffffffffffff163373ffffffffffffffffffffffffffffffffffffffff16145b80620008e95750600960009054906101000a900473ffffffffffffffffffffffffffffffffffffffff1673ffffffffffffffffffffffffffffffffffffffff163373ffffffffffffffffffffffffffffffffffffffff16145b620008f357600080fd5b6200090b33858562000a6d60201b620026b41760201c565b6000600d60008673ffffffffffffffffffffffffffffffffffffffff1673ffffffffffffffffffffffffffffffffffffffff168152602001908152602001600020805490501415620009be57600e8490806001815401808255809150509060018203906000526020600020016000909192909190916101000a81548173ffffffffffffffffffffffffffffffffffffffff021916908373ffffffffffffffffffffffffffffffffffffffff160217905550505b620009c862000f37565b6040518060400160405280848152602001858152509050600d60008673ffffffffffffffffffffffffffffffffffffffff1673ffffffffffffffffffffffffffffffffffffffff1681526020019081526020016000208190806001815401808255809150509060018203906000526020600020906002020160009091929091909150600082015181600001556020820151816001015550505060019150509392505050565b600073ffffffffffffffffffffffffffffffffffffffff168373ffffffffffffffffffffffffffffffffffffffff16141562000af5576040517f08c379a000000000000000000000000000000000000000000000000000000000815260040180806020018281038252602581526020018062003eb06025913960400191505060405180910390fd5b600073ffffffffffffffffffffffffffffffffffffffff168273ffffffffffffffffffffffffffffffffffffffff16141562000b7d576040517f08c379a000000000000000000000000000000000000000000000000000000000815260040180806020018281038252602381526020018062003efb6023913960400191505060405180910390fd5b62000bf18160405180606001604052806026815260200162003ed560269139600160008773ffffffffffffffffffffffffffffffffffffffff1673ffffffffffffffffffffffffffffffffffffffff1681526020019081526020016000205462000d3a60201b62002b28179092919060201c565b600160008573ffffffffffffffffffffffffffffffffffffffff1673ffffffffffffffffffffffffffffffffffffffff1681526020019081526020016000208190555062000c8d81600160008573ffffffffffffffffffffffffffffffffffffffff1673ffffffffffffffffffffffffffffffffffffffff1681526020019081526020016000205462000e2760201b6200255d1790919060201c565b600160008473ffffffffffffffffffffffffffffffffffffffff1673ffffffffffffffffffffffffffffffffffffffff168152602001908152602001600020819055508173ffffffffffffffffffffffffffffffffffffffff168373ffffffffffffffffffffffffffffffffffffffff167fddf252ad1be2c89b69c2b068fc378daa952ba7f163c4a11628f55a4df523b3ef836040518082815260200191505060405180910390a3505050565b600083831115829062000deb576040517f08c379a00000000000000000000000000000000000000000000000000000000081526004018080602001828103825283818151815260200191508051906020019080838360005b8381101562000daf57808201518184015260208101905062000d92565b50505050905090810190601f16801562000ddd5780820380516001836020036101000a031916815260200191505b509250505060405180910390fd5b5060008385039050809150509392505050565b60008060009054906101000a900473ffffffffffffffffffffffffffffffffffffffff16905090565b60008082840190508381101562000ea6576040517f08c379a000000000000000000000000000000000000000000000000000000000815260040180806020018281038252601b8152602001807f536166654d6174683a206164646974696f6e206f766572666c6f77000000000081525060200191505060405180910390fd5b8091505092915050565b828054600181600116156101000203166002900490600052602060002090601f016020900481019282601f1062000ef357805160ff191683800117855562000f24565b8280016001018555821562000f24579182015b8281111562000f2357825182559160200191906001019062000f06565b5b50905062000f33919062000f51565b5090565b604051806040016040528060008152602001600081525090565b62000f7691905b8082111562000f7257600081600090555060010162000f58565b5090565b90565b612f278062000f896000396000f3fe608060405234801561001057600080fd5b50600436106101cf5760003560e01c806372d47d3611610104578063929ec537116100a2578063a9059cbb11610071578063a9059cbb146108c3578063c2091cfb14610929578063dd62ed3e14610988578063f2fde38b14610a00576101cf565b8063929ec5371461071c57806395d89b41146107745780639dc29fac146107f7578063a457c2d71461085d576101cf565b806384d5d944116100de57806384d5d944146105fa578063893d20e81461066a5780638da5cb5b146106b45780638e94ae5f146106fe576101cf565b806372d47d361461052b57806379cc67901461058a5780638456cb59146105f0576101cf565b806339509351116101715780636c24a76f1161014b5780636c24a76f1461045357806370a08231146104ab578063715018a614610503578063728e9e241461050d576101cf565b806339509351146103c15780633f4ba83a146104275780635c975abb14610431576101cf565b806318160ddd116101ad57806318160ddd146102db57806323b872dd146102f95780632c41f2a61461037f578063313ce5671461039d576101cf565b806306fdde03146101d4578063095ea7b3146102575780630d6b44eb146102bd575b600080fd5b6101dc610a44565b6040518080602001828103825283818151815260200191508051906020019080838360005b8381101561021c578082015181840152602081019050610201565b50505050905090810190601f1680156102495780820380516001836020036101000a031916815260200191505b509250505060405180910390f35b6102a36004803603604081101561026d57600080fd5b81019080803573ffffffffffffffffffffffffffffffffffffffff16906020019092919080359060200190929190505050610ae6565b604051808215151515815260200191505060405180910390f35b6102c5610b86565b6040518082815260200191505060405180910390f35b6102e3610c06565b6040518082815260200191505060405180910390f35b6103656004803603606081101561030f57600080fd5b81019080803573ffffffffffffffffffffffffffffffffffffffff169060200190929190803573ffffffffffffffffffffffffffffffffffffffff16906020019092919080359060200190929190505050610c10565b604051808215151515815260200191505060405180910390f35b610387610d47565b6040518082815260200191505060405180910390f35b6103a5610d6f565b604051808260ff1660ff16815260200191505060405180910390f35b61040d600480360360408110156103d757600080fd5b81019080803573ffffffffffffffffffffffffffffffffffffffff16906020019092919080359060200190929190505050610d86565b604051808215151515815260200191505060405180910390f35b61042f610e39565b005b610439611003565b604051808215151515815260200191505060405180910390f35b6104956004803603602081101561046957600080fd5b81019080803573ffffffffffffffffffffffffffffffffffffffff169060200190929190505050611019565b6040518082815260200191505060405180910390f35b6104ed600480360360208110156104c157600080fd5b81019080803573ffffffffffffffffffffffffffffffffffffffff169060200190929190505050611050565b6040518082815260200191505060405180910390f35b61050b611099565b005b610515611221565b6040518082815260200191505060405180910390f35b61053361122e565b6040518080602001828103825283818151815260200191508051906020019060200280838360005b8381101561057657808201518184015260208101905061055b565b505050509050019250505060405180910390f35b6105d6600480360360408110156105a057600080fd5b81019080803573ffffffffffffffffffffffffffffffffffffffff169060200190929190803590602001909291905050506112bc565b604051808215151515815260200191505060405180910390f35b6105f861141d565b005b6106506004803603606081101561061057600080fd5b81019080803573ffffffffffffffffffffffffffffffffffffffff16906020019092919080359060200190929190803590602001909291905050506115e9565b604051808215151515815260200191505060405180910390f35b6106726118f4565b604051808273ffffffffffffffffffffffffffffffffffffffff1673ffffffffffffffffffffffffffffffffffffffff16815260200191505060405180910390f35b6106bc611903565b604051808273ffffffffffffffffffffffffffffffffffffffff1673ffffffffffffffffffffffffffffffffffffffff16815260200191505060405180910390f35b61070661192c565b6040518082815260200191505060405180910390f35b61075e6004803603602081101561073257600080fd5b81019080803573ffffffffffffffffffffffffffffffffffffffff1690602001909291905050506119b5565b6040518082815260200191505060405180910390f35b61077c611aed565b6040518080602001828103825283818151815260200191508051906020019080838360005b838110156107bc5780820151818401526020810190506107a1565b50505050905090810190601f1680156107e95780820380516001836020036101000a031916815260200191505b509250505060405180910390f35b6108436004803603604081101561080d57600080fd5b81019080803573ffffffffffffffffffffffffffffffffffffffff16906020019092919080359060200190929190505050611b8f565b604051808215151515815260200191505060405180910390f35b6108a96004803603604081101561087357600080fd5b81019080803573ffffffffffffffffffffffffffffffffffffffff16906020019092919080359060200190929190505050611cf0565b604051808215151515815260200191505060405180910390f35b61090f600480360360408110156108d957600080fd5b81019080803573ffffffffffffffffffffffffffffffffffffffff16906020019092919080359060200190929190505050611dbd565b604051808215151515815260200191505060405180910390f35b610931611ea2565b6040518080602001828103825283818151815260200191508051906020019060200280838360005b83811015610974578082015181840152602081019050610959565b505050509050019250505060405180910390f35b6109ea6004803603604081101561099e57600080fd5b81019080803573ffffffffffffffffffffffffffffffffffffffff169060200190929190803573ffffffffffffffffffffffffffffffffffffffff169060200190929190505050611fdb565b6040518082815260200191505060405180910390f35b610a4260048036036020811015610a1657600080fd5b81019080803573ffffffffffffffffffffffffffffffffffffffff1690602001909291905050506120e4565b005b606060068054600181600116156101000203166002900480601f016020809104026020016040519081016040528092919081815260200182805460018160011615610100020316600290048015610adc5780601f10610ab157610100808354040283529160200191610adc565b820191906000526020600020905b815481529060010190602001808311610abf57829003601f168201915b5050505050905090565b60008060149054906101000a900460ff1615610b6a576040517f08c379a00000000000000000000000000000000000000000000000000000000081526004018080602001828103825260108152602001807f5061757361626c653a207061757365640000000000000000000000000000000081525060200191505060405180910390fd5b610b7c610b756121b9565b84846121c1565b6001905092915050565b6000806000905060008090505b600e80549050811015610bfe576000610be2600e8381548110610bb257fe5b9060005260206000200160009054906101000a900473ffffffffffffffffffffffffffffffffffffffff166119b5565b1115610bf15781806001019250505b8080600101915050610b93565b508091505090565b6000600354905090565b60008060149054906101000a900460ff1615610c94576040517f08c379a00000000000000000000000000000000000000000000000000000000081526004018080602001828103825260108152602001807f5061757361626c653a207061757365640000000000000000000000000000000081525060200191505060405180910390fd5b600073ffffffffffffffffffffffffffffffffffffffff168473ffffffffffffffffffffffffffffffffffffffff161415610cce57600080fd5b600073ffffffffffffffffffffffffffffffffffffffff168373ffffffffffffffffffffffffffffffffffffffff161415610d0857600080fd5b610d128433611fdb565b821115610d1e57600080fd5b610d2784611019565b821115610d3357600080fd5b610d3e8484846123b8565b90509392505050565b6000610d6a610d5461192c565b610d5c610c06565b61251390919063ffffffff16565b905090565b6000600460009054906101000a900460ff16905090565b6000610e2f610d936121b9565b84610e2a8560026000610da46121b9565b73ffffffffffffffffffffffffffffffffffffffff1673ffffffffffffffffffffffffffffffffffffffff16815260200190815260200160002060008973ffffffffffffffffffffffffffffffffffffffff1673ffffffffffffffffffffffffffffffffffffffff1681526020019081526020016000205461255d90919063ffffffff16565b6121c1565b6001905092915050565b610e416121b9565b73ffffffffffffffffffffffffffffffffffffffff166000809054906101000a900473ffffffffffffffffffffffffffffffffffffffff1673ffffffffffffffffffffffffffffffffffffffff1614610f02576040517f08c379a00000000000000000000000000000000000000000000000000000000081526004018080602001828103825260208152602001807f4f776e61626c653a2063616c6c6572206973206e6f7420746865206f776e657281525060200191505060405180910390fd5b600060149054906101000a900460ff16610f84576040517f08c379a00000000000000000000000000000000000000000000000000000000081526004018080602001828103825260148152602001807f5061757361626c653a206e6f742070617573656400000000000000000000000081525060200191505060405180910390fd5b60008060146101000a81548160ff0219169083151502179055507f5db9ee0a495bf2e6ff9c91a7834c1ba4fdd244a5e8aa4e537bd38aeae4b073aa33604051808273ffffffffffffffffffffffffffffffffffffffff1673ffffffffffffffffffffffffffffffffffffffff16815260200191505060405180910390a1565b60008060149054906101000a900460ff16905090565b60008061102583611050565b90506000611032846119b5565b9050611047818361251390919063ffffffff16565b92505050919050565b6000600160008373ffffffffffffffffffffffffffffffffffffffff1673ffffffffffffffffffffffffffffffffffffffff168152602001908152602001600020549050919050565b6110a16121b9565b73ffffffffffffffffffffffffffffffffffffffff166000809054906101000a900473ffffffffffffffffffffffffffffffffffffffff1673ffffffffffffffffffffffffffffffffffffffff1614611162576040517f08c379a00000000000000000000000000000000000000000000000000000000081526004018080602001828103825260208152602001807f4f776e61626c653a2063616c6c6572206973206e6f7420746865206f776e657281525060200191505060405180910390fd5b600073ffffffffffffffffffffffffffffffffffffffff166000809054906101000a900473ffffffffffffffffffffffffffffffffffffffff1673ffffffffffffffffffffffffffffffffffffffff167f8be0079c531659141344cd1fd0a4f28419497f9722a3daafe3b4186f6b6457e060405160405180910390a360008060006101000a81548173ffffffffffffffffffffffffffffffffffffffff021916908373ffffffffffffffffffffffffffffffffffffffff160217905550565b6000600e80549050905090565b6060600e8054806020026020016040519081016040528092919081815260200182805480156112b257602002820191906000526020600020905b8160009054906101000a900473ffffffffffffffffffffffffffffffffffffffff1673ffffffffffffffffffffffffffffffffffffffff1681526020019060010190808311611268575b5050505050905090565b60008060149054906101000a900460ff1615611340576040517f08c379a00000000000000000000000000000000000000000000000000000000081526004018080602001828103825260108152602001807f5061757361626c653a207061757365640000000000000000000000000000000081525060200191505060405180910390fd5b6113486121b9565b73ffffffffffffffffffffffffffffffffffffffff166000809054906101000a900473ffffffffffffffffffffffffffffffffffffffff1673ffffffffffffffffffffffffffffffffffffffff1614611409576040517f08c379a00000000000000000000000000000000000000000000000000000000081526004018080602001828103825260208152602001807f4f776e61626c653a2063616c6c6572206973206e6f7420746865206f776e657281525060200191505060405180910390fd5b61141383836125e5565b6001905092915050565b6114256121b9565b73ffffffffffffffffffffffffffffffffffffffff166000809054906101000a900473ffffffffffffffffffffffffffffffffffffffff1673ffffffffffffffffffffffffffffffffffffffff16146114e6576040517f08c379a00000000000000000000000000000000000000000000000000000000081526004018080602001828103825260208152602001807f4f776e61626c653a2063616c6c6572206973206e6f7420746865206f776e657281525060200191505060405180910390fd5b600060149054906101000a900460ff1615611569576040517f08c379a00000000000000000000000000000000000000000000000000000000081526004018080602001828103825260108152602001807f5061757361626c653a207061757365640000000000000000000000000000000081525060200191505060405180910390fd5b6001600060146101000a81548160ff0219169083151502179055507f62e78cea01bee320cd4e420270b5ea74000d11b0c9f74754ebdbfc544b05a25833604051808273ffffffffffffffffffffffffffffffffffffffff1673ffffffffffffffffffffffffffffffffffffffff16815260200191505060405180910390a1565b6000600860009054906101000a900473ffffffffffffffffffffffffffffffffffffffff1673ffffffffffffffffffffffffffffffffffffffff163373ffffffffffffffffffffffffffffffffffffffff1614806116945750600b60009054906101000a900473ffffffffffffffffffffffffffffffffffffffff1673ffffffffffffffffffffffffffffffffffffffff163373ffffffffffffffffffffffffffffffffffffffff16145b806116ec5750600760009054906101000a900473ffffffffffffffffffffffffffffffffffffffff1673ffffffffffffffffffffffffffffffffffffffff163373ffffffffffffffffffffffffffffffffffffffff16145b8061172957506116fa611903565b73ffffffffffffffffffffffffffffffffffffffff163373ffffffffffffffffffffffffffffffffffffffff16145b806117815750600960009054906101000a900473ffffffffffffffffffffffffffffffffffffffff1673ffffffffffffffffffffffffffffffffffffffff163373ffffffffffffffffffffffffffffffffffffffff16145b61178a57600080fd5b6117953385856126b4565b6000600d60008673ffffffffffffffffffffffffffffffffffffffff1673ffffffffffffffffffffffffffffffffffffffff16815260200190815260200160002080549050141561184757600e8490806001815401808255809150509060018203906000526020600020016000909192909190916101000a81548173ffffffffffffffffffffffffffffffffffffffff021916908373ffffffffffffffffffffffffffffffffffffffff160217905550505b61184f612d4a565b6040518060400160405280848152602001858152509050600d60008673ffffffffffffffffffffffffffffffffffffffff1673ffffffffffffffffffffffffffffffffffffffff1681526020019081526020016000208190806001815401808255809150509060018203906000526020600020906002020160009091929091909150600082015181600001556020820151816001015550505060019150509392505050565b60006118fe611903565b905090565b60008060009054906101000a900473ffffffffffffffffffffffffffffffffffffffff16905090565b6000806000905060008090505b600e805490508110156119ad576000611988600e838154811061195857fe5b9060005260206000200160009054906101000a900473ffffffffffffffffffffffffffffffffffffffff166119b5565b905061199d818461255d90919063ffffffff16565b9250508080600101915050611939565b508091505090565b6000806000905060008090505b600d60008573ffffffffffffffffffffffffffffffffffffffff1673ffffffffffffffffffffffffffffffffffffffff16815260200190815260200160002080549050811015611ae357600d60008573ffffffffffffffffffffffffffffffffffffffff1673ffffffffffffffffffffffffffffffffffffffff1681526020019081526020016000208181548110611a5657fe5b906000526020600020906002020160000154421015611ad6576000600d60008673ffffffffffffffffffffffffffffffffffffffff1673ffffffffffffffffffffffffffffffffffffffff1681526020019081526020016000208281548110611abb57fe5b90600052602060002090600202016001015490508083019250505b80806001019150506119c2565b5080915050919050565b606060058054600181600116156101000203166002900480601f016020809104026020016040519081016040528092919081815260200182805460018160011615610100020316600290048015611b855780601f10611b5a57610100808354040283529160200191611b85565b820191906000526020600020905b815481529060010190602001808311611b6857829003601f168201915b5050505050905090565b60008060149054906101000a900460ff1615611c13576040517f08c379a00000000000000000000000000000000000000000000000000000000081526004018080602001828103825260108152602001807f5061757361626c653a207061757365640000000000000000000000000000000081525060200191505060405180910390fd5b611c1b6121b9565b73ffffffffffffffffffffffffffffffffffffffff166000809054906101000a900473ffffffffffffffffffffffffffffffffffffffff1673ffffffffffffffffffffffffffffffffffffffff1614611cdc576040517f08c379a00000000000000000000000000000000000000000000000000000000081526004018080602001828103825260208152602001807f4f776e61626c653a2063616c6c6572206973206e6f7420746865206f776e657281525060200191505060405180910390fd5b611ce6838361296e565b6001905092915050565b6000611db3611cfd6121b9565b84611dae85604051806060016040528060258152602001612e456025913960026000611d276121b9565b73ffffffffffffffffffffffffffffffffffffffff1673ffffffffffffffffffffffffffffffffffffffff16815260200190815260200160002060008a73ffffffffffffffffffffffffffffffffffffffff1673ffffffffffffffffffffffffffffffffffffffff16815260200190815260200160002054612b289092919063ffffffff16565b6121c1565b6001905092915050565b60008060149054906101000a900460ff1615611e41576040517f08c379a00000000000000000000000000000000000000000000000000000000081526004018080602001828103825260108152602001807f5061757361626c653a207061757365640000000000000000000000000000000081525060200191505060405180910390fd5b600073ffffffffffffffffffffffffffffffffffffffff168373ffffffffffffffffffffffffffffffffffffffff161415611e7b57600080fd5b611e8433611019565b821115611e9057600080fd5b611e9a8383612be8565b905092915050565b606080611ead610b86565b604051908082528060200260200182016040528015611edb5781602001602082028038833980820191505090505b509050600080905060008090505b600e80549050811015611fd2576000611f38600e8381548110611f0857fe5b9060005260206000200160009054906101000a900473ffffffffffffffffffffffffffffffffffffffff166119b5565b1115611fc557600e8181548110611f4b57fe5b9060005260206000200160009054906101000a900473ffffffffffffffffffffffffffffffffffffffff16838381518110611f8257fe5b602002602001019073ffffffffffffffffffffffffffffffffffffffff16908173ffffffffffffffffffffffffffffffffffffffff168152505081806001019250505b8080600101915050611ee9565b50819250505090565b60008060149054906101000a900460ff161561205f576040517f08c379a00000000000000000000000000000000000000000000000000000000081526004018080602001828103825260108152602001807f5061757361626c653a207061757365640000000000000000000000000000000081525060200191505060405180910390fd5b600260008473ffffffffffffffffffffffffffffffffffffffff1673ffffffffffffffffffffffffffffffffffffffff16815260200190815260200160002060008373ffffffffffffffffffffffffffffffffffffffff1673ffffffffffffffffffffffffffffffffffffffff16815260200190815260200160002054905092915050565b6120ec6121b9565b73ffffffffffffffffffffffffffffffffffffffff166000809054906101000a900473ffffffffffffffffffffffffffffffffffffffff1673ffffffffffffffffffffffffffffffffffffffff16146121ad576040517f08c379a00000000000000000000000000000000000000000000000000000000081526004018080602001828103825260208152602001807f4f776e61626c653a2063616c6c6572206973206e6f7420746865206f776e657281525060200191505060405180910390fd5b6121b681612c06565b50565b600033905090565b600073ffffffffffffffffffffffffffffffffffffffff168373ffffffffffffffffffffffffffffffffffffffff161415612247576040517f08c379a0000000000000000000000000000000000000000000000000000000008152600401808060200182810382526024815260200180612d8a6024913960400191505060405180910390fd5b600073ffffffffffffffffffffffffffffffffffffffff168273ffffffffffffffffffffffffffffffffffffffff1614156122cd576040517f08c379a0000000000000000000000000000000000000000000000000000000008152600401808060200182810382526022815260200180612ed16022913960400191505060405180910390fd5b80600260008573ffffffffffffffffffffffffffffffffffffffff1673ffffffffffffffffffffffffffffffffffffffff16815260200190815260200160002060008473ffffffffffffffffffffffffffffffffffffffff1673ffffffffffffffffffffffffffffffffffffffff168152602001908152602001600020819055508173ffffffffffffffffffffffffffffffffffffffff168373ffffffffffffffffffffffffffffffffffffffff167f8c5be1e5ebec7d5bd14f71427d1e84f3dd0314c0f7b2291e5b200ac8c7c3b925836040518082815260200191505060405180910390a3505050565b60008060149054906101000a900460ff161561243c576040517f08c379a00000000000000000000000000000000000000000000000000000000081526004018080602001828103825260108152602001807f5061757361626c653a207061757365640000000000000000000000000000000081525060200191505060405180910390fd5b6124478484846126b4565b612508846124536121b9565b61250385604051806060016040528060288152602001612dd460289139600260008b73ffffffffffffffffffffffffffffffffffffffff1673ffffffffffffffffffffffffffffffffffffffff16815260200190815260200160002060006124b96121b9565b73ffffffffffffffffffffffffffffffffffffffff1673ffffffffffffffffffffffffffffffffffffffff16815260200190815260200160002054612b289092919063ffffffff16565b6121c1565b600190509392505050565b600061255583836040518060400160405280601e81526020017f536166654d6174683a207375627472616374696f6e206f766572666c6f770000815250612b28565b905092915050565b6000808284019050838110156125db576040517f08c379a000000000000000000000000000000000000000000000000000000000815260040180806020018281038252601b8152602001807f536166654d6174683a206164646974696f6e206f766572666c6f77000000000081525060200191505060405180910390fd5b8091505092915050565b6125ef828261296e565b6126b0826125fb6121b9565b6126ab84604051806060016040528060248152602001612ead60249139600260008973ffffffffffffffffffffffffffffffffffffffff1673ffffffffffffffffffffffffffffffffffffffff16815260200190815260200160002060006126616121b9565b73ffffffffffffffffffffffffffffffffffffffff1673ffffffffffffffffffffffffffffffffffffffff16815260200190815260200160002054612b289092919063ffffffff16565b6121c1565b5050565b600073ffffffffffffffffffffffffffffffffffffffff168373ffffffffffffffffffffffffffffffffffffffff16141561273a576040517f08c379a0000000000000000000000000000000000000000000000000000000008152600401808060200182810382526025815260200180612d656025913960400191505060405180910390fd5b600073ffffffffffffffffffffffffffffffffffffffff168273ffffffffffffffffffffffffffffffffffffffff1614156127c0576040517f08c379a0000000000000000000000000000000000000000000000000000000008152600401808060200182810382526023815260200180612e226023913960400191505060405180910390fd5b61282c81604051806060016040528060268152602001612dfc60269139600160008773ffffffffffffffffffffffffffffffffffffffff1673ffffffffffffffffffffffffffffffffffffffff16815260200190815260200160002054612b289092919063ffffffff16565b600160008573ffffffffffffffffffffffffffffffffffffffff1673ffffffffffffffffffffffffffffffffffffffff168152602001908152602001600020819055506128c181600160008573ffffffffffffffffffffffffffffffffffffffff1673ffffffffffffffffffffffffffffffffffffffff1681526020019081526020016000205461255d90919063ffffffff16565b600160008473ffffffffffffffffffffffffffffffffffffffff1673ffffffffffffffffffffffffffffffffffffffff168152602001908152602001600020819055508173ffffffffffffffffffffffffffffffffffffffff168373ffffffffffffffffffffffffffffffffffffffff167fddf252ad1be2c89b69c2b068fc378daa952ba7f163c4a11628f55a4df523b3ef836040518082815260200191505060405180910390a3505050565b600073ffffffffffffffffffffffffffffffffffffffff168273ffffffffffffffffffffffffffffffffffffffff1614156129f4576040517f08c379a0000000000000000000000000000000000000000000000000000000008152600401808060200182810382526021815260200180612e6a6021913960400191505060405180910390fd5b612a6081604051806060016040528060228152602001612e8b60229139600160008673ffffffffffffffffffffffffffffffffffffffff1673ffffffffffffffffffffffffffffffffffffffff16815260200190815260200160002054612b289092919063ffffffff16565b600160008473ffffffffffffffffffffffffffffffffffffffff1673ffffffffffffffffffffffffffffffffffffffff16815260200190815260200160002081905550612ab88160035461251390919063ffffffff16565b600381905550600073ffffffffffffffffffffffffffffffffffffffff168273ffffffffffffffffffffffffffffffffffffffff167fddf252ad1be2c89b69c2b068fc378daa952ba7f163c4a11628f55a4df523b3ef836040518082815260200191505060405180910390a35050565b6000838311158290612bd5576040517f08c379a00000000000000000000000000000000000000000000000000000000081526004018080602001828103825283818151815260200191508051906020019080838360005b83811015612b9a578082015181840152602081019050612b7f565b50505050905090810190601f168015612bc75780820380516001836020036101000a031916815260200191505b509250505060405180910390fd5b5060008385039050809150509392505050565b6000612bfc612bf56121b9565b84846126b4565b6001905092915050565b600073ffffffffffffffffffffffffffffffffffffffff168173ffffffffffffffffffffffffffffffffffffffff161415612c8c576040517f08c379a0000000000000000000000000000000000000000000000000000000008152600401808060200182810382526026815260200180612dae6026913960400191505060405180910390fd5b8073ffffffffffffffffffffffffffffffffffffffff166000809054906101000a900473ffffffffffffffffffffffffffffffffffffffff1673ffffffffffffffffffffffffffffffffffffffff167f8be0079c531659141344cd1fd0a4f28419497f9722a3daafe3b4186f6b6457e060405160405180910390a3806000806101000a81548173ffffffffffffffffffffffffffffffffffffffff021916908373ffffffffffffffffffffffffffffffffffffffff16021790555050565b60405180604001604052806000815260200160008152509056fe42455032303a207472616e736665722066726f6d20746865207a65726f206164647265737342455032303a20617070726f76652066726f6d20746865207a65726f20616464726573734f776e61626c653a206e6577206f776e657220697320746865207a65726f206164647265737342455032303a207472616e7366657220616d6f756e74206578636565647320616c6c6f77616e636542455032303a207472616e7366657220616d6f756e7420657863656564732062616c616e636542455032303a207472616e7366657220746f20746865207a65726f206164647265737342455032303a2064656372656173656420616c6c6f77616e63652062656c6f77207a65726f42455032303a206275726e2066726f6d20746865207a65726f206164647265737342455032303a206275726e20616d6f756e7420657863656564732062616c616e636542455032303a206275726e20616d6f756e74206578636565647320616c6c6f77616e636542455032303a20617070726f766520746f20746865207a65726f2061646472657373a265627a7a72315820a0136757e70b7d8261371bcea5290d9aa5438df837a5c6ccf7b72d4f902e3da964736f6c6343000510003242455032303a207472616e736665722066726f6d20746865207a65726f206164647265737342455032303a207472616e7366657220616d6f756e7420657863656564732062616c616e636542455032303a207472616e7366657220746f20746865207a65726f2061646472657373",
  "source": "pragma solidity 0.5.16;\r\nimport \"./SafeMath.sol\";\r\nimport \"./IBEP20.sol\";\r\nimport \"./BEP20Token.sol\";\r\n\r\n/**\r\n * @dev Implementation of DLC TOKEN\r\n * This contract is base on the Implementation of BEP20Token and 5ROI TOKEN\r\n * src: https://github.com/binance-chain/BEPs/blob/master/BEP20.md\r\n * src: https://github.com/5roiglobal/smartcontract\r\n */\r\n \r\ncontract DLC is BEP20Token{\r\n    using SafeMath for uint256;\r\n/**\r\n * @dev Time Unit constant\r\n * convert second into human readable time unit\r\n */\r\n    //Timeline\r\n    uint constant DAY = 86400;\r\n    uint constant WEEK = 604800;\r\n    uint constant MONTH = 2629743;\r\n    uint constant YEAR = 31556926;\r\n    \r\n    /**\r\n     * @dev total coin supply and decimals\r\n     * @var DLCSUPPLY total DLC coin supply\r\n     * @var DECIMALS Decimals of DLC TOKEN\r\n     */\r\n\r\n    uint256 constant DLCSUPPLY = 2500000000;\r\n    uint8 constant DECIMALS = 18;\r\n\r\n    /**\r\n     * @dev ultils for Transfer and Lock\r\n     */\r\n    \r\n    struct LockItem {\r\n        uint256  releaseDate;\r\n        uint256  amount;\r\n    }\r\n    \r\n    /**\r\n     * @dev add address of fund receiver for the initial fund allocation \r\n    */\r\n    \r\n    address private marketingWallet =   0x9056D989164089C3Ea5E260D09F44181ddf6517c;\r\n    address private teamWallet =        0x15F67ED889b7CBd397d6912b02197c0f68316F5e;\r\n    address private partnerWallet =     0x2773D4Aa9E92D6F48fDf168A2608fc8ef2995CeC;\r\n    address private publicSaleWallet =  0xDeAA29120287264C421b967d06FC92d65B0a4b0E;\r\n    address private privateSaleWallet = 0x644508057BF6A4d6cf8F23D2Cd191dE604F29986;\r\n    \r\n\r\n    mapping(address => uint256) private privateSale;\r\n    mapping (address => LockItem[]) private lockList;\r\n   \r\n    address[] private lockedAddressList; // list of addresses that have some fund currently or previously locked\r\n     \r\n    //Date map\r\n    uint[] private quarterPublic;\r\n    \r\n    uint256 amount;\r\n    uint period;\r\n    uint unit;\r\n    uint256 amountWithDecimal = 10 ** uint256(DECIMALS);\r\n    constructor() public payable BEP20Token(\"DLC\",\"DLCTOKEN\", DLCSUPPLY, DECIMALS) {\r\n        \r\n        //Private sale allocation\r\n        \r\n        /**\r\n         * @dev modified the amount that want to transfer \r\n         * @var amount enter a human friendly amount \r\n         */\r\n\r\n       \r\n        amount = 40000000;\r\n        BEP20Token.transfer(privateSaleWallet, amount * amountWithDecimal);\r\n        \r\n        //Partner allocation\r\n        amount = 250000000;\r\n        BEP20Token.transfer(partnerWallet, amount * amountWithDecimal);\r\n        \r\n        //Team allocation\r\n        amount = 250000000; \r\n        BEP20Token.transfer(teamWallet, amount * amountWithDecimal);\r\n        \r\n        //Marketing wallet allocation\r\n        amount = 250000000; \r\n        BEP20Token.transfer(marketingWallet, amount * amountWithDecimal);\r\n        \r\n        //Timeline for Public allocation\r\n\r\n        /**\r\n         * @dev transfer amount according to the frequency period of a time unit\r\n         * @var period total period repeat overtime\r\n         * @var unit hour, month, year - could use these base constant unit declare at constant list to generate custom unit such as quarter, bi-annual,etc\r\n         * @var percentage sent certain % fund each time\r\n         * Total time period = period * unit\r\n         */\r\n\r\n        period = 20;\r\n        unit =  3* MONTH;\r\n        uint8 percentage = 5;\r\n        amount = BEP20Token.balanceOf(msg.sender); //Equivalance of 1 710 000 000 DLC\r\n        for(uint i = 0; i < period; i ++) {\r\n            quarterPublic.push(block.timestamp + i * unit);\r\n        }\r\n        //Start publicSale\r\n    \r\n        for(uint i = 0; i < quarterPublic.length; i ++) {\r\n            uint256 transferAmount = amount * uint256(percentage) /100;\r\n            amount.sub(transferAmount);\r\n            transferAndLock(publicSaleWallet, transferAmount,   quarterPublic[i]);\r\n        }\r\n    }\r\n    \r\n    /**\r\n     * @dev transfer of token to another address.\r\n     * always require the sender has enough balance\r\n     * @return the bool true if success. \r\n     * @param _receiver The address to transfer to.\r\n     * @param _amount The amount to be transferred.\r\n     */\r\n\r\n    function transfer(address _receiver, uint256 _amount) public whenNotPaused returns (bool success) {\r\n        require(_receiver != address(0)); \r\n        require(_amount <= getAvailableBalance(msg.sender));\r\n        return BEP20Token.transfer(_receiver, _amount);\r\n    }\r\n\r\n    /**\r\n     * @dev transfer of token on behalf of the owner to another address. \r\n     * always require the owner has enough balance and the sender is allowed to transfer the given amount\r\n     * @return the bool true if success. \r\n     * @param _from The address to transfer from.\r\n     * @param _receiver The address to transfer to.\r\n     * @param _amount The amount to be transferred.\r\n     */\r\n    \r\n     \r\n    function transferFrom(address _from, address _receiver, uint256 _amount) public whenNotPaused returns (bool) {\r\n        require(_from != address(0));\r\n        require(_receiver != address(0));\r\n        require(_amount <= BEP20Token.allowance(_from, msg.sender));\r\n        require(_amount <= getAvailableBalance(_from));\r\n        return BEP20Token.transferFrom(_from, _receiver, _amount);\r\n    }\r\n\r\n    /**\r\n     * @dev transfer of token on behalf of the owner to another address. \r\n     * always require the owner has enough balance and the sender is allowed to transfer the given amount\r\n     * @return the bool true if success. \r\n     * @param _receiver The address to transfer to.\r\n     * @param _amount The amount to be transferred.\r\n     */\r\n\r\n    function transferAndLock(address _receiver, uint256 _amount, uint256 _releaseDate) public returns (bool success) {\r\n        //Require the transferAndLock for only few wallet address\r\n        require(msg.sender == teamWallet || msg.sender == privateSaleWallet || msg.sender ==   marketingWallet || msg.sender == owner() || msg.sender == partnerWallet);\r\n        BEP20Token._transfer(msg.sender,_receiver,_amount);\r\n        \r\n        if (lockList[_receiver].length==0) lockedAddressList.push(_receiver);\r\n        \r\n        LockItem memory item = LockItem({amount:_amount, releaseDate:_releaseDate});\r\n        lockList[_receiver].push(item);\r\n    \r\n        return true;\r\n    }\r\n   \r\n    // Dapp Functionality\r\n\r\n   /**\r\n     * @dev querry the list of address that have at least a fund locked currently or in the past\r\n     * @return the list of all addresses \r\n     */\r\n\r\n    function getLockedAddresses() public view returns (address[] memory) {\r\n\t    return lockedAddressList;\r\n\t}\r\n\t\r\n   /**\r\n     * @dev count the number of account that have at least a fund locked currently or in the past\r\n     * @return the number of addresses \r\n     */\r\n\r\n    function getNumberOfLockedAddresses() public view returns (uint256 _count) {\r\n\t    return lockedAddressList.length;\r\n    }\r\n\t    \r\n\t    \r\n   /**\r\n     * @dev check the number address that have at least a fund locked currently\r\n     * @return the number of addresses \r\n     */\r\n\r\n\tfunction getNumberOfLockedAddressesCurrently() public view returns (uint256 _count) {\r\n\t    uint256 count=0;\r\n\t    for(uint256 i = 0; i<lockedAddressList.length; i++) {\r\n\t        if (getLockedAmount(lockedAddressList[i])>0) count++;\r\n\t    }\r\n\t    return count;\r\n\t}\r\n\t    \r\n   /**\r\n     * @dev check the list of address that have at least a fund locked currently\r\n     * @return the list of all addresses \r\n     */\r\n\r\n\tfunction getLockedAddressesCurrently() public view returns (address[] memory) {\r\n\t    address [] memory list = new address[](getNumberOfLockedAddressesCurrently());\r\n\t    uint256 j = 0;\r\n\t    for(uint256 i = 0; i<lockedAddressList.length; i++) {\r\n\t        if (getLockedAmount(lockedAddressList[i])>0) {\r\n\t            list[j] = lockedAddressList[i];\r\n\t            j++;\r\n\t        }\r\n\t    }\r\n\t    \r\n        return list;\r\n    }\r\n\r\n   /**\r\n     * @dev check locked funds of a given address.\r\n     * @return the total amount of locked fund in an address\r\n     * @param lockedAddress The address to check.\r\n     */\r\n     \r\n    function getLockedAmount(address lockedAddress) public view returns(uint256 _amount) {\r\n        uint256 lockedAmount =0;\r\n        for(uint256 j = 0; j<lockList[lockedAddress].length; j++) {\r\n            if(block.timestamp < lockList[lockedAddress][j].releaseDate) {\r\n                uint256 temp = lockList[lockedAddress][j].amount;\r\n                lockedAmount += temp;\r\n            }\r\n        }\r\n        return lockedAmount;\r\n    }\r\n    \r\n   /**\r\n     * @dev  check the total of locked funds at the current time\r\n     * @return the total amount of locked fund\r\n     */\r\n     \r\n    function getLockedAmountTotal() public view returns(uint256 _amount) {\r\n        uint256 sum =0;\r\n        for(uint256 i = 0; i<lockedAddressList.length; i++) {\r\n            uint256 lockedAmount = getLockedAmount(lockedAddressList[i]);\r\n            sum = sum.add(lockedAmount);\r\n        }\r\n        return sum;\r\n    }\r\n    \r\n   /**\r\n     * @dev check of locked funds of a given address.\r\n     * @return the total amount \r\n     * @param lockedAddress The address to check.\r\n     */\r\n     \r\n    function getAvailableBalance(address lockedAddress) public view returns(uint256 _amount) {\r\n        uint256 bal = BEP20Token.balanceOf(lockedAddress);\r\n        uint256 locked = getLockedAmount(lockedAddress);\r\n        return bal.sub(locked);\r\n    }\r\n    \r\n   /**\r\n     * @dev  check amount circulating coins that are not locked at the current time\r\n     * @return the total amount\r\n     */\r\n     \r\n    function getCirculatingSupplyTotal() public view returns(uint256 _amount) {\r\n        return BEP20Token.totalSupply().sub(getLockedAmountTotal());\r\n    }\r\n}",
  "sourcePath": "C:\\Users\\nhat1\\Desktop\\DLC_REAL\\contracts\\DLC.sol",
  "compiler": {
    "name": "solc",
    "version": "0.5.16+commit.9c3226ce.Emscripten.clang"
  },
  "schemaVersion": "3.4.4",
  "updatedAt": "2021-12-29T04:11:00.657Z",
  "networkType": "ethereum",
  "devdoc": {
    "details": "Implementation of DLC TOKEN This contract is base on the Implementation of BEP20Token and 5ROI TOKEN src: https://github.com/binance-chain/BEPs/blob/master/BEP20.md src: https://github.com/5roiglobal/smartcontract",
    "methods": {
      "allowance(address,address)": {
        "details": "See {BEP20-allowance}."
      },
      "approve(address,uint256)": {
        "details": "See {BEP20-approve}.    * Requirements:    * - `spender` cannot be the zero address."
      },
      "balanceOf(address)": {
        "details": "See {BEP20-balanceOf}."
      },
      "burn(address,uint256)": {
        "details": "See {BEP20-burn}."
      },
      "burnFrom(address,uint256)": {
        "details": "See {BEP20-burnFrom}."
      },
      "decimals()": {
        "details": "Returns the token decimals."
      },
      "decreaseAllowance(address,uint256)": {
        "details": "Atomically decreases the allowance granted to `spender` by the caller.    * This is an alternative to {approve} that can be used as a mitigation for problems described in {BEP20-approve}.    * Emits an {Approval} event indicating the updated allowance.    * Requirements:    * - `spender` cannot be the zero address. - `spender` must have allowance for the caller of at least `subtractedValue`."
      },
      "getAvailableBalance(address)": {
        "details": "check of locked funds of a given address.",
        "params": {
          "lockedAddress": "The address to check."
        },
        "return": "the total amount "
      },
      "getCirculatingSupplyTotal()": {
        "details": "check amount circulating coins that are not locked at the current time",
        "return": "the total amount"
      },
      "getLockedAddresses()": {
        "details": "querry the list of address that have at least a fund locked currently or in the past",
        "return": "the list of all addresses "
      },
      "getLockedAddressesCurrently()": {
        "details": "check the list of address that have at least a fund locked currently",
        "return": "the list of all addresses "
      },
      "getLockedAmount(address)": {
        "details": "check locked funds of a given address.",
        "params": {
          "lockedAddress": "The address to check."
        },
        "return": "the total amount of locked fund in an address"
      },
      "getLockedAmountTotal()": {
        "details": "check the total of locked funds at the current time",
        "return": "the total amount of locked fund"
      },
      "getNumberOfLockedAddresses()": {
        "details": "count the number of account that have at least a fund locked currently or in the past",
        "return": "the number of addresses "
      },
      "getNumberOfLockedAddressesCurrently()": {
        "details": "check the number address that have at least a fund locked currently",
        "return": "the number of addresses "
      },
      "getOwner()": {
        "details": "Returns the bep token owner."
      },
      "increaseAllowance(address,uint256)": {
        "details": "Atomically increases the allowance granted to `spender` by the caller.    * This is an alternative to {approve} that can be used as a mitigation for problems described in {BEP20-approve}.    * Emits an {Approval} event indicating the updated allowance.    * Requirements:    * - `spender` cannot be the zero address."
      },
      "name()": {
        "details": "Returns the token name."
      },
      "owner()": {
        "details": "Returns the address of the current owner."
      },
      "renounceOwnership()": {
        "details": "Leaves the contract without owner. It will not be possible to call `onlyOwner` functions anymore. Can only be called by the current owner.    * NOTE: Renouncing ownership will leave the contract without an owner, thereby removing any functionality that is only available to the owner."
      },
      "symbol()": {
        "details": "Returns the token symbol."
      },
      "totalSupply()": {
        "details": "See {BEP20-totalSupply}."
      },
      "transfer(address,uint256)": {
        "details": "transfer of token to another address. always require the sender has enough balance",
        "params": {
          "_amount": "The amount to be transferred.",
          "_receiver": "The address to transfer to."
        },
        "return": "the bool true if success. "
      },
      "transferAndLock(address,uint256,uint256)": {
        "details": "transfer of token on behalf of the owner to another address.  always require the owner has enough balance and the sender is allowed to transfer the given amount",
        "params": {
          "_amount": "The amount to be transferred.",
          "_receiver": "The address to transfer to."
        },
        "return": "the bool true if success. "
      },
      "transferFrom(address,address,uint256)": {
        "details": "transfer of token on behalf of the owner to another address.  always require the owner has enough balance and the sender is allowed to transfer the given amount",
        "params": {
          "_amount": "The amount to be transferred.",
          "_from": "The address to transfer from.",
          "_receiver": "The address to transfer to."
        },
        "return": "the bool true if success. "
      },
      "transferOwnership(address)": {
        "details": "Transfers ownership of the contract to a new account (`newOwner`). Can only be called by the current owner."
      }
    }
  },
  "userdoc": {
    "methods": {}
  }
}