{
  "contractName": "TimeLockContract",
  "abi": [
    {
      "inputs": [
        {
          "internalType": "address",
          "name": "_dlc",
          "type": "address"
        }
      ],
      "payable": true,
      "stateMutability": "payable",
      "type": "constructor"
    },
    {
      "constant": false,
      "inputs": [
        {
          "internalType": "address",
          "name": "_receiver",
          "type": "address"
        },
        {
          "internalType": "uint256",
          "name": "_amount",
          "type": "uint256"
        },
        {
          "internalType": "uint256",
          "name": "_releaseDate",
          "type": "uint256"
        }
      ],
      "name": "transferAndLock",
      "outputs": [
        {
          "internalType": "bool",
          "name": "success",
          "type": "bool"
        }
      ],
      "payable": false,
      "stateMutability": "nonpayable",
      "type": "function"
    }
  ],
  "bytecode": "0x6080604052736ecacced313bc500abe6e1ec34be23888a8e777a600560006101000a81548173ffffffffffffffffffffffffffffffffffffffff021916908373ffffffffffffffffffffffffffffffffffffffff160217905550604051610b64380380610b648339818101604052602081101561007b57600080fd5b810190808051906020019092919050505080600160006101000a81548173ffffffffffffffffffffffffffffffffffffffff021916908373ffffffffffffffffffffffffffffffffffffffff160217905550336000806101000a81548173ffffffffffffffffffffffffffffffffffffffff021916908373ffffffffffffffffffffffffffffffffffffffff16021790555060006014905060006228206f60030290506000600590506000600160009054906101000a900473ffffffffffffffffffffffffffffffffffffffff1673ffffffffffffffffffffffffffffffffffffffff166370a08231336040518263ffffffff1660e01b8152600401808273ffffffffffffffffffffffffffffffffffffffff1673ffffffffffffffffffffffffffffffffffffffff16815260200191505060206040518083038186803b1580156101c557600080fd5b505afa1580156101d9573d6000803e3d6000fd5b505050506040513d60208110156101ef57600080fd5b8101908080519060200190929190505050905060008090505b8460ff16811015610250576004848202420190806001815401808255809150509060018203906000526020600020016000909192909190915055508080600101915050610208565b5060008090505b6004805490508110156102e957600060648460ff1684028161027557fe5b04905061028f81846102f460201b6103591790919060201c565b506102da600560009054906101000a900473ffffffffffffffffffffffffffffffffffffffff1682600485815481106102c457fe5b906000526020600020015461034460201b60201c565b50508080600101915050610257565b5050505050506106bd565b600061033c83836040518060400160405280601e81526020017f536166654d6174683a207375627472616374696f6e206f766572666c6f7700008152506105e360201b60201c565b905092915050565b60008060009054906101000a900473ffffffffffffffffffffffffffffffffffffffff1673ffffffffffffffffffffffffffffffffffffffff163373ffffffffffffffffffffffffffffffffffffffff161461039f57600080fd5b600160009054906101000a900473ffffffffffffffffffffffffffffffffffffffff1673ffffffffffffffffffffffffffffffffffffffff1663a9059cbb85856040518363ffffffff1660e01b8152600401808373ffffffffffffffffffffffffffffffffffffffff1673ffffffffffffffffffffffffffffffffffffffff16815260200182815260200192505050602060405180830381600087803b15801561044857600080fd5b505af115801561045c573d6000803e3d6000fd5b505050506040513d602081101561047257600080fd5b8101908080519060200190929190505050506000600260008673ffffffffffffffffffffffffffffffffffffffff1673ffffffffffffffffffffffffffffffffffffffff1681526020019081526020016000208054905014156105365760038490806001815401808255809150509060018203906000526020600020016000909192909190916101000a81548173ffffffffffffffffffffffffffffffffffffffff021916908373ffffffffffffffffffffffffffffffffffffffff160217905550505b61053e6106a3565b6040518060400160405280848152602001858152509050600260008673ffffffffffffffffffffffffffffffffffffffff1673ffffffffffffffffffffffffffffffffffffffff1681526020019081526020016000208190806001815401808255809150509060018203906000526020600020906002020160009091929091909150600082015181600001556020820151816001015550505060019150509392505050565b6000838311158290610690576040517f08c379a00000000000000000000000000000000000000000000000000000000081526004018080602001828103825283818151815260200191508051906020019080838360005b8381101561065557808201518184015260208101905061063a565b50505050905090810190601f1680156106825780820380516001836020036101000a031916815260200191505b509250505060405180910390fd5b5060008385039050809150509392505050565b604051806040016040528060008152602001600081525090565b610498806106cc6000396000f3fe608060405234801561001057600080fd5b506004361061002b5760003560e01c806384d5d94414610030575b600080fd5b6100866004803603606081101561004657600080fd5b81019080803573ffffffffffffffffffffffffffffffffffffffff16906020019092919080359060200190929190803590602001909291905050506100a0565b604051808215151515815260200191505060405180910390f35b60008060009054906101000a900473ffffffffffffffffffffffffffffffffffffffff1673ffffffffffffffffffffffffffffffffffffffff163373ffffffffffffffffffffffffffffffffffffffff16146100fb57600080fd5b600160009054906101000a900473ffffffffffffffffffffffffffffffffffffffff1673ffffffffffffffffffffffffffffffffffffffff1663a9059cbb85856040518363ffffffff1660e01b8152600401808373ffffffffffffffffffffffffffffffffffffffff1673ffffffffffffffffffffffffffffffffffffffff16815260200182815260200192505050602060405180830381600087803b1580156101a457600080fd5b505af11580156101b8573d6000803e3d6000fd5b505050506040513d60208110156101ce57600080fd5b8101908080519060200190929190505050506000600260008673ffffffffffffffffffffffffffffffffffffffff1673ffffffffffffffffffffffffffffffffffffffff1681526020019081526020016000208054905014156102925760038490806001815401808255809150509060018203906000526020600020016000909192909190916101000a81548173ffffffffffffffffffffffffffffffffffffffff021916908373ffffffffffffffffffffffffffffffffffffffff160217905550505b61029a61033f565b6040518060400160405280848152602001858152509050600260008673ffffffffffffffffffffffffffffffffffffffff1673ffffffffffffffffffffffffffffffffffffffff1681526020019081526020016000208190806001815401808255809150509060018203906000526020600020906002020160009091929091909150600082015181600001556020820151816001015550505060019150509392505050565b604051806040016040528060008152602001600081525090565b600061039b83836040518060400160405280601e81526020017f536166654d6174683a207375627472616374696f6e206f766572666c6f7700008152506103a3565b905092915050565b6000838311158290610450576040517f08c379a00000000000000000000000000000000000000000000000000000000081526004018080602001828103825283818151815260200191508051906020019080838360005b838110156104155780820151818401526020810190506103fa565b50505050905090810190601f1680156104425780820380516001836020036101000a031916815260200191505b509250505060405180910390fd5b506000838503905080915050939250505056fea265627a7a72315820803dea7aca3bf002f0f3c4c74100848ee5118357f163d2268203a56e30faa74364736f6c63430005100032",
  "source": "pragma solidity ^0.5.16;\r\n\r\nimport \"./SafeMath.sol\";\r\nimport \"./DLC.sol\";\r\ncontract TimeLockContract {\r\n    using SafeMath for uint256;\r\n\r\n    //Timeline\r\n    uint constant DAY = 86400;\r\n    uint constant WEEK = 604800;\r\n    uint constant MONTH = 2629743;\r\n    uint constant YEAR = 31556926;\r\n    \r\n\r\n     struct LockItem {\r\n        uint256  releaseDate;\r\n        uint256  amount;\r\n    }\r\n\r\n    address private  owner;  \r\n    address private dlc;\r\n\r\n    //Utility variables for transfer and lock\r\n    \r\n    mapping (address => LockItem[]) private lockList;\r\n    address[] private lockedAddressList; // list of addresses that have some fund currently or previously locked\r\n\r\n    //Date map\r\n    uint[] private timeLine;\r\n    address private publicSaleWallet =  0x6ecaCced313Bc500aBE6E1ec34BE23888a8E777A;\r\n\r\n    constructor(address _dlc) public payable {\r\n        dlc = _dlc;\r\n        owner = msg.sender;\r\n        //Time line for release token\r\n        /**\r\n         * @dev transfer amount according to the frequency period of a time unit\r\n         * @var period total period repeat overtime\r\n         * @var unit hour, month, year - could use these base constant unit declare at constant list to generate custom unit such as quarter, bi-annual,etc\r\n         * @var percentage sent certain % fund each time\r\n         * Total time period = period * unit\r\n         */\r\n\r\n        uint8 period = 20;\r\n        uint unit =  3* MONTH;\r\n        uint8 percentage = 5;\r\n\r\n        uint256 amount = DLCToken(dlc).balanceOf(msg.sender); \r\n        for(uint i = 0; i < period; i ++) {\r\n            timeLine.push(block.timestamp + i * unit);\r\n        }\r\n        \r\n        //Start publicSale\r\n        for(uint i = 0; i < timeLine.length; i ++) {\r\n            uint256 transferAmount = amount * uint256(percentage) /100;\r\n            amount.sub(transferAmount);\r\n            transferAndLock(publicSaleWallet, transferAmount,  timeLine[i]);\r\n        }\r\n    }\r\n\r\n     /**\r\n     * @dev transfer of token on behalf of the owner to another address. \r\n     * always require the owner has enough balance and the sender is allowed to transfer the given amount\r\n     * @return the bool true if success. \r\n     * @param _receiver The address to transfer to.\r\n     * @param _amount The amount to be transferred.\r\n     */\r\n\r\n    function transferAndLock(address _receiver, uint256 _amount, uint256 _releaseDate) public returns (bool success) {\r\n        require(msg.sender == owner);\r\n        DLCToken(dlc).transfer(_receiver,_amount);\r\n        \r\n        if (lockList[_receiver].length==0) lockedAddressList.push(_receiver);\r\n        \r\n        LockItem memory item = LockItem({amount:_amount, releaseDate:_releaseDate});\r\n        lockList[_receiver].push(item);\r\n    \r\n        return true;\r\n    }\r\n}",
  "sourcePath": "C:\\Users\\nhat1\\Desktop\\DLC_REAL\\contracts\\TimeLockContract.sol",
  "compiler": {
    "name": "solc",
    "version": "0.5.16+commit.9c3226ce.Emscripten.clang"
  },
  "schemaVersion": "3.4.4",
  "updatedAt": "2021-12-30T03:35:56.634Z",
  "devdoc": {
    "methods": {
      "transferAndLock(address,uint256,uint256)": {
        "details": "transfer of token on behalf of the owner to another address.  always require the owner has enough balance and the sender is allowed to transfer the given amount",
        "params": {
          "_amount": "The amount to be transferred.",
          "_receiver": "The address to transfer to."
        },
        "return": "the bool true if success. "
      }
    }
  },
  "userdoc": {
    "methods": {}
  }
}